{
  "contractName": "Store",
  "abi": [
    {
      "inputs": [
        {
          "internalType": "address",
          "name": "_owner",
          "type": "address"
        }
      ],
      "stateMutability": "nonpayable",
      "type": "constructor"
    },
    {
      "inputs": [],
      "name": "OnlyOwner",
      "type": "error"
    },
    {
      "anonymous": false,
      "inputs": [
        {
          "indexed": false,
          "internalType": "string",
          "name": "customer_id",
          "type": "string"
        },
        {
          "indexed": false,
          "internalType": "address",
          "name": "customer_address",
          "type": "address"
        },
        {
          "indexed": false,
          "internalType": "uint256",
          "name": "value",
          "type": "uint256"
        }
      ],
      "name": "BuyProduct",
      "type": "event"
    },
    {
      "anonymous": false,
      "inputs": [
        {
          "indexed": false,
          "internalType": "address",
          "name": "_to",
          "type": "address"
        },
        {
          "indexed": false,
          "internalType": "uint256",
          "name": "_value",
          "type": "uint256"
        }
      ],
      "name": "Withdraw",
      "type": "event"
    },
    {
      "inputs": [
        {
          "internalType": "string",
          "name": "customer_id",
          "type": "string"
        }
      ],
      "name": "buyProduct",
      "outputs": [],
      "stateMutability": "payable",
      "type": "function",
      "payable": true
    },
    {
      "inputs": [],
      "name": "withraw",
      "outputs": [],
      "stateMutability": "nonpayable",
      "type": "function"
    }
  ],
  "bytecode": "0x608060405234801561001057600080fd5b506040516106eb3803806106eb833981810160405281019061003291906100db565b806000806101000a81548173ffffffffffffffffffffffffffffffffffffffff021916908373ffffffffffffffffffffffffffffffffffffffff16021790555050610108565b600080fd5b600073ffffffffffffffffffffffffffffffffffffffff82169050919050565b60006100a88261007d565b9050919050565b6100b88161009d565b81146100c357600080fd5b50565b6000815190506100d5816100af565b92915050565b6000602082840312156100f1576100f0610078565b5b60006100ff848285016100c6565b91505092915050565b6105d4806101176000396000f3fe6080604052600436106100295760003560e01c8063364e022f1461002e578063e850497a1461004a575b600080fd5b61004860048036038101906100439190610353565b610061565b005b34801561005657600080fd5b5061005f6100b9565b005b60003390503460015461007491906103d5565b6001819055507f0934496808dd8ab6e2905fb6bad9b3f75af0d9408e30d8f422b673b3d53361c48282346040516100ad939291906104d8565b60405180910390a15050565b60008054906101000a900473ffffffffffffffffffffffffffffffffffffffff1673ffffffffffffffffffffffffffffffffffffffff163373ffffffffffffffffffffffffffffffffffffffff161461013e576040517f5fc483c500000000000000000000000000000000000000000000000000000000815260040160405180910390fd5b60008060009054906101000a900473ffffffffffffffffffffffffffffffffffffffff1690508073ffffffffffffffffffffffffffffffffffffffff166108fc6001549081150290604051600060405180830381858888f193505050501580156101ac573d6000803e3d6000fd5b506000600154905060006001819055507f884edad9ce6fa2440d8a54cc123490eb96d2768479d49ff9c7366125a942436482826040516101ed929190610575565b60405180910390a15050565b6000604051905090565b600080fd5b600080fd5b600080fd5b600080fd5b6000601f19601f8301169050919050565b7f4e487b7100000000000000000000000000000000000000000000000000000000600052604160045260246000fd5b61026082610217565b810181811067ffffffffffffffff8211171561027f5761027e610228565b5b80604052505050565b60006102926101f9565b905061029e8282610257565b919050565b600067ffffffffffffffff8211156102be576102bd610228565b5b6102c782610217565b9050602081019050919050565b82818337600083830152505050565b60006102f66102f1846102a3565b610288565b90508281526020810184848401111561031257610311610212565b5b61031d8482856102d4565b509392505050565b600082601f83011261033a5761033961020d565b5b813561034a8482602086016102e3565b91505092915050565b60006020828403121561036957610368610203565b5b600082013567ffffffffffffffff81111561038757610386610208565b5b61039384828501610325565b91505092915050565b6000819050919050565b7f4e487b7100000000000000000000000000000000000000000000000000000000600052601160045260246000fd5b60006103e08261039c565b91506103eb8361039c565b9250828201905080821115610403576104026103a6565b5b92915050565b600081519050919050565b600082825260208201905092915050565b60005b83811015610443578082015181840152602081019050610428565b60008484015250505050565b600061045a82610409565b6104648185610414565b9350610474818560208601610425565b61047d81610217565b840191505092915050565b600073ffffffffffffffffffffffffffffffffffffffff82169050919050565b60006104b382610488565b9050919050565b6104c3816104a8565b82525050565b6104d28161039c565b82525050565b600060608201905081810360008301526104f2818661044f565b905061050160208301856104ba565b61050e60408301846104c9565b949350505050565b6000819050919050565b600061053b61053661053184610488565b610516565b610488565b9050919050565b600061054d82610520565b9050919050565b600061055f82610542565b9050919050565b61056f81610554565b82525050565b600060408201905061058a6000830185610566565b61059760208301846104c9565b939250505056fea2646970667358221220e6d5e715d7134753a48751d9577809e8f9749d6131b6dcaca95dab50e481d3d664736f6c63430008110033",
  "immutableReferences": {},
  "source": "// SPDX-License-Identifier: MIT\npragma solidity >=0.4.22 <0.9.0;\n// nhn product id, value, emit user_id, product_id v value\ncontract Store {\n    address private owner;\n    uint private balance;\n     \n    /// Only the owner can call this function.\n    error OnlyOwner();\n    modifier onlyOwner() {\n        if (msg.sender != owner)\n            revert OnlyOwner();\n        _;\n    }\n\n    constructor(address _owner) {\n      owner = _owner;\n    }\n\n    event BuyProduct(string customer_id, address customer_address, uint value);\n    event Withdraw(address _to, uint _value );\n\n    function buyProduct(\n        string memory customer_id\n    )  external payable {\n      address buyer = msg.sender;\n      balance = balance + msg.value;\n      emit BuyProduct(customer_id, buyer, msg.value);\n\n    }\n    function withraw() external onlyOwner {\n      address payable _to = payable(owner);\n      _to.transfer(balance);\n      uint _value = balance;\n      balance = 0;\n      emit Withdraw(_to, _value);\n    }\n}\n",
  "sourcePath": "C:\\Users\\abc\\Documents\\ProjectS1Y4\\contracts\\Store.sol",
  "compiler": {
    "name": "solc",
    "version": "0.8.17+commit.8df45f5f.Emscripten.clang"
  },
  "schemaVersion": "3.4.10",
  "updatedAt": "2022-11-20T16:57:03.529Z",
  "networkType": "ethereum",
  "devdoc": {
    "kind": "dev",
    "methods": {},
    "version": 1
  },
  "userdoc": {
    "errors": {
      "OnlyOwner()": [
        {
          "notice": "Only the owner can call this function."
        }
      ]
    },
    "kind": "user",
    "methods": {},
    "version": 1
  }
}